:030000000208BB38
:0C08BB00787FE4F6D8FD75810902080082
:10080000C290C291C29220900C309209209106129F
:1008100008C71208E030900C2092092091061208B7
:10082000D61208D120900620920330910930900C06
:100830003092092091061208C71208D6209006208F
:10084000920320910920900C3092093091061208F1
:10085000E01208C730900C2092093091061208D19E
:100860001208D63090A030929D30919A1208D11281
:0708700008E0120877808FF9
:0508C700D2A0C2A12235
:0508CC00C2A0D2A12230
:0508D100C2A0C2A1223B
:0508D600D2A2C2A32222
:0508DB00C2A2D2A3221D
:0508E000C2A2C2A32228
:10087700E4F508F509F508F509B2A47F087E00122A
:10088700089B0509E50970020508C39405E5089466
:030897000040E638
:01089A00223B
:10089B00E4FDFCC3ED9FEC9E5015E4FAFB0BBB0093
:0F08AB00010ABA27F8BB10F50DBD00010C80E45F
:0108BA00221B
:00000001FF
