:03000000020D15D9
:0C0D1500787FE4F6D8FD758123020D5CA8
:100DA100456E7465722050617373776F72643A2077
:100DB1002000436F72726563742050617373776FA3
:100DC100726400233A73746172742F2A3A63616EFC
:100DD10063656C0057726F6E672050617373776F34
:080DE10072640036363636005C
:040E39000222000091
:100ABE00E4F508F509F50AF50BF50C780D7C00FD4B
:100ACE007BFF7A0D79E4FE7F051208D0C2B27F3823
:100ADE00120E297F0C120E297F06120E297F01128B
:100AEE000E29120B8A120C528F08E508601CAF0AF1
:100AFE0074122FF8A608EF24C0FF120E297F2A12B7
:100B0E000DF9050AE50A70020509E50A64044509AE
:100B1E0070D37F01120E29E4F509F50A780D7C00D9
:100B2E00FDFB7A007912120AA1EF3395E0F50B8FD7
:100B3E000C450C7027B2B27F80120E297BFF7A0D06
:100B4E0079B3120B907FC0120E297BFF7A0D79C4F8
:100B5E00120B907F647E00120E0980897F80120E28
:100B6E00297BFF7A0D79D5120B907F047E00120E31
:0C0B7E00097F01120E29120B8A020AF3F3
:100DE900AB17AA18A919851F82851E831208F6FF59
:100DF9008FA0D2B0D2B17F037E00120E09C2B122F8
:060B8A007BFF7A0D79A14A
:060B90008B178A18891979
:100B9600E4F51AF51BF51CF51DF51EF51FF520F5F8
:100BA60021F51EF51FAB17AA18A919851F82851EE8
:100BB600831208F6FF7003020C51C3E51F9410E57B
:100BC6001E9400400AE5219410E5209400500E1270
:100BD6000DF90521E52170020520020C43C3E51F2E
:100BE6009420E51E9400400AE5219420E520940017
:100BF600502DE51B6401451A700D120DE90521E51E
:100C060021703A05208036751A00751B017FC012C7
:100C16000E29120DE90521E52170220520801E7599
:100C26001C00751D017F01120E297F80120E2912EC
:100C36000DE9752000752101E4F51AF51B051FE580
:0B0C46001F6003020BAB051E020BAB8E
:010C51002280
:100C5200E4FF7590FEE590B4EE0A7F310523E523AB
:100C620070020522E590B4DE0A7F320523E5237087
:100C7200020522E590B4BE0A7F330523E523700204
:100C820005227590FDE590B4ED0A7F340523E52336
:100C920070020522E590B4DD0A7F350523E5237055
:100CA200020522E590B4BD0A7F360523E5237002D2
:100CB20005227590FBE590B4EB0A7F370523E52307
:100CC20070020522E590B4DB0A7F380523E5237024
:100CD200020522E590B4BB0A7F390523E5237002A1
:100CE20005227590F7E590B4E70A7F2A0523E523EC
:100CF20070020522E590B4D70A7F300523E5237000
:100D0200020522E590B4B70A7F230523E52370028A
:020D12000522B8
:010D140022BC
:100E29008FA0C2B0D2B17F0A7E00120E09C2B122D0
:100E0900E4FDFCC3ED9FEC9E5015E4FAFB0BBB001F
:0F0E1900010ABA27F8BB10F50DBD00010C80E4EB
:010E280022A7
:100D2100020ABEE493A3F8E493A34003F68001F220
:100D310008DFF48029E493A3F85407240CC8C333D3
:100D4100C4540F4420C8834004F456800146F6DFA2
:100D5100E4800B0102040810204080900E39E47EEB
:100D6100019360BCA3FF543F30E509541FFEE49397
:100D7100A360010ECF54C025E060A840B8E493A35E
:100D8100FAE493A3F8E493A3C8C582C8CAC583CA89
:100D9100F0A3C8C582C8CAC583CADFE9DEE780BE41
:010E3D0000B4
:10080000E709F608DFFA8046E709F208DFFA803EDA
:1008100088828C83E709F0A3DFFA8032E309F608C7
:10082000DFFA8078E309F208DFFA807088828C832F
:10083000E309F0A3DFFA806489828A83E0A3F608E3
:10084000DFFA805889828A83E0A3F208DFFA804CBD
:1008500080D280FA80C680D4806980F28033801094
:1008600080A680EA809A80A880DA80E280CA8033FD
:1008700089828A83ECFAE493A3C8C582C8CCC58375
:10088000CCF0A3C8C582C8CCC583CCDFE9DEE78045
:100890000D89828A83E493A3F608DFF9ECFAA9F0C4
:1008A000EDFB2289828A83ECFAE0A3C8C582C8CC1A
:1008B000C583CCF0A3C8C582C8CCC583CCDFEADE33
:1008C000E880DB89828A83E493A3F208DFF980CC95
:1008D00088F0EF60010E4E60C388F0ED2402B4048E
:1008E0000050B9F582EB2402B4040050AF23234535
:0608F00082239008507302
:1008F600BB010CE58229F582E5833AF583E02250B7
:1009060006E92582F8E622BBFE06E92582F8E22200
:0D091600E58229F582E5833AF583E493221A
:10092300E3F5F009E208B5F06D606B80F3E3F5F0F1
:1009330009E608B5F060605E80F387F009E608B564
:10094300F054605280F487F009E208B5F04860463D
:1009530080F488828C8387F009E0A3B5F038603691
:1009630080F488828C8387F009E493A3B5F0276031
:100973002580F388828C83E3F5F009E0A3B5F016B4
:10098300601480F388828C83E3F5F009E493A3B5C4
:10099300F004600280F2020A4E808580E7808E8038
:1009A300D2803C8015806C807E809B80B5808B805C
:1009B300A1804F8070803A020A5A89828A83ECFAB6
:1009C300E493F5F0A3C8C582C8CCC583CCE493A354
:1009D300C8C582C8CCC583CCB5F070606E80E18990
:1009E300828A83E493F5F0A3E208B5F05E605C804D
:1009F300F289828A83E0F5F0A3E608B5F04D604BF7
:100A030080F389828A83E0F5F0A3E208B5F03C60C5
:100A13003A80F389828A83E493F5F0A3E608B5F07C
:100A23002A602880F2805389828A83ECFAE493F562
:100A3300F0A3C8C582C8CCC583CCE0A3C8C582C80F
:100A4300CCC583CCB5F004600280E27FFFB5F00231
:100A53000F2240027F012289828A83ECFAE0F5F0BB
:100A6300A3C8C582C8CCC583CCE0A3C8C582C8CC03
:100A7300C583CCB5F0D560D380E389828A83ECFA51
:100A8300E0F5F0A3C8C582C8CCC583CCE493A3C862
:100A9300C582C8CCC583CCB5F0B160AF80E288F025
:100AA300ED2402B4040050A3F582EB2402B4040045
:0B0AB3005099232345822390099C7377
:00000001FF
