:030000000208DF14
:0C08DF00787FE4F6D8FD75810D0208005A
:10080000750800750901E4F50AF50B1208462090F9
:1008100013E509640145087003120846E4F508F57C
:10082000091208C43090E7E5096401450870031215
:100830000846E4F508F509C2A4C2A3C2A2C2A1C237
:06084000A01208A280C80E
:1008A20012087CB2A0B2A112087EB2A1B2A21208B2
:1008B2007EB2A2B2A312087EB2A3B2A412087EB282
:0208C200A4226E
:1008C40012087CB2A112087EB2A212087EB2A31250
:0B08D400087EB2A47F107E00020882A4
:10084600E4F50CF50DF50CF50DD2A4D2A3D2A2D287
:10085600A1D2A07F087E00120882C2A4C2A3C2A2AF
:10086600C2A1C2A0050DE50D7002050CC39405E5F5
:050876000C940040D4C9
:01087B00225A
:06087C00B2A07F107E0017
:10088200E4FDFCC3ED9FEC9E5015E4FAFB0BBB00AC
:0F089200010ABA27F8BB10F50DBD00010C80E478
:0108A1002234
:00000001FF
