:0300000002087083
:0C087000787FE4F6D8FD758109020800CD
:1008000020900D12088612082C12087CD292D291E8
:1008100020910D12088612082C120881D292D290D3
:0C0820002092DD120886D290D29180D484
:05087C00D2A0C2A12280
:05088100C2A0D2A1227B
:05088600C2A0C2A12286
:10082C00E4F508F509F508F509B2A47F087E001275
:10083C0008500509E50970020508C39405E50894FC
:03084C000040E683
:01084F002286
:10085000E4FDFCC3ED9FEC9E5015E4FAFB0BBB00DE
:0F086000010ABA27F8BB10F50DBD00010C80E4AA
:01086F002266
:00000001FF
