:030000000209856D
:0C098500787FE4F6D8FD7581150209CCDE
:040AE70002130000F6
:100A1100E4F5157F38120AD77F0C120AD7C3E51403
:100A21009410E51394005008E5142480FF120AD7AE
:100A3100C3E5149410E51394004008E51424B0FFB5
:100A4100120AD7C3E5149420E5139400400A7F01EC
:100A5100120AD7E4F513F5141208008F15120AA72C
:090A61007F037E00120AB780B485
:100A9700AB08AA09A90A851082850F83120A6AFF83
:100AA7008FA0D2B0D2B17F037E00120AB7C2B122A3
:0608C3008B088A09890A76
:1008C900E4F50BF50CF50DF50EF50FF510F511F531
:1008D90012F50FF510AB08AA09A90A851082850F30
:1008E90083120A6AFF7003020984C3E5109410E5B4
:1008F9000F9400400AE5129410E5119400500E126D
:100909000AA70512E51270020511020976C3E5105E
:100919009420E50F9400400AE5129420E511940013
:10092900502DE50C6401450B700D120A970512E56F
:1009390012703A05118036750B00750C017FC012D3
:100949000AD7120A970512E51270220511801E7541
:100959000D00750E017F01120AD77F80120AD71286
:100969000A97751100751201E4F50BF50C0510E5F0
:0B0979001060030208DE050F0208DE1C
:010984002250
:10080000E4FF7590FEE590B4EE0A7F310514E5141F
:1008100070020513E590B4DE0A7F320514E514700A
:10082000020513E590B4BE0A7F330514E514700287
:1008300005137590FDE590B4ED0A7F340514E514B9
:1008400070020513E590B4DD0A7F350514E51470D8
:10085000020513E590B4BD0A7F360514E514700255
:1008600005137590FBE590B4EB0A7F370514E5148A
:1008700070020513E590B4DB0A7F380514E51470A7
:10088000020513E590B4BB0A7F390514E514700224
:1008900005137590F7E590B4E70A7F2A0514E5146F
:1008A00070020513E590B4D70A7F300514E5147083
:1008B000020513E590B4B70A7F230514E51470020E
:0208C00005131E
:0108C2002213
:100AD7008FA0C2B0D2B17F0A7E00120AB7C2B1227C
:100AB700E4FDFCC3ED9FEC9E5015E4FAFB0BBB0075
:0F0AC700010ABA27F8BB10F50DBD00010C80E441
:010AD60022FD
:10099100020A11E493A3F8E493A34003F68001F261
:1009A10008DFF48029E493A3F85407240CC8C33367
:1009B100C4540F4420C8834004F456800146F6DF36
:1009C100E4800B0102040810204080900AE7E47ED5
:1009D100019360BCA3FF543F30E509541FFEE4932B
:1009E100A360010ECF54C025E060A840B8E493A3F2
:1009F100FAE493A3F8E493A3C8C582C8CAC583CA1D
:100A0100F0A3C8C582C8CAC583CADFE9DEE780BED4
:010AEB00000A
:100A6A00BB010CE58229F582E5833AF583E0225041
:100A7A0006E92582F8E622BBFE06E92582F8E2228B
:0D0A8A00E58229F582E5833AF583E49322A5
:00000001FF
